{
  "_format": "hh3-artifact-1",
  "contractName": "EscrowProject",
  "sourceName": "contracts/EscrowProject.sol",
  "abi": [
    {
      "inputs": [
        {
          "internalType": "uint256",
          "name": "_feeBps",
          "type": "uint256"
        }
      ],
      "stateMutability": "nonpayable",
      "type": "constructor"
    },
    {
      "anonymous": false,
      "inputs": [
        {
          "indexed": true,
          "internalType": "uint256",
          "name": "id",
          "type": "uint256"
        },
        {
          "indexed": false,
          "internalType": "address",
          "name": "raisedBy",
          "type": "address"
        }
      ],
      "name": "DisputeRaised",
      "type": "event"
    },
    {
      "anonymous": false,
      "inputs": [
        {
          "indexed": true,
          "internalType": "uint256",
          "name": "id",
          "type": "uint256"
        },
        {
          "indexed": false,
          "internalType": "bool",
          "name": "favorStudent",
          "type": "bool"
        }
      ],
      "name": "DisputeResolved",
      "type": "event"
    },
    {
      "anonymous": false,
      "inputs": [
        {
          "indexed": true,
          "internalType": "uint256",
          "name": "id",
          "type": "uint256"
        },
        {
          "indexed": false,
          "internalType": "address",
          "name": "student",
          "type": "address"
        },
        {
          "indexed": false,
          "internalType": "uint256",
          "name": "amount",
          "type": "uint256"
        }
      ],
      "name": "FundsReleased",
      "type": "event"
    },
    {
      "anonymous": false,
      "inputs": [
        {
          "indexed": true,
          "internalType": "uint256",
          "name": "id",
          "type": "uint256"
        },
        {
          "indexed": false,
          "internalType": "address",
          "name": "company",
          "type": "address"
        },
        {
          "indexed": false,
          "internalType": "uint256",
          "name": "amount",
          "type": "uint256"
        },
        {
          "indexed": false,
          "internalType": "string",
          "name": "title",
          "type": "string"
        }
      ],
      "name": "ProjectCreated",
      "type": "event"
    },
    {
      "anonymous": false,
      "inputs": [
        {
          "indexed": true,
          "internalType": "uint256",
          "name": "id",
          "type": "uint256"
        }
      ],
      "name": "ProjectRefunded",
      "type": "event"
    },
    {
      "anonymous": false,
      "inputs": [
        {
          "indexed": true,
          "internalType": "uint256",
          "name": "id",
          "type": "uint256"
        },
        {
          "indexed": false,
          "internalType": "address",
          "name": "student",
          "type": "address"
        }
      ],
      "name": "StudentAssigned",
      "type": "event"
    },
    {
      "anonymous": false,
      "inputs": [
        {
          "indexed": true,
          "internalType": "uint256",
          "name": "id",
          "type": "uint256"
        }
      ],
      "name": "WorkDelivered",
      "type": "event"
    },
    {
      "inputs": [
        {
          "internalType": "uint256",
          "name": "id",
          "type": "uint256"
        }
      ],
      "name": "approveAndRelease",
      "outputs": [],
      "stateMutability": "nonpayable",
      "type": "function"
    },
    {
      "inputs": [],
      "name": "arbiter",
      "outputs": [
        {
          "internalType": "address",
          "name": "",
          "type": "address"
        }
      ],
      "stateMutability": "view",
      "type": "function"
    },
    {
      "inputs": [
        {
          "internalType": "uint256",
          "name": "id",
          "type": "uint256"
        },
        {
          "internalType": "address payable",
          "name": "_student",
          "type": "address"
        }
      ],
      "name": "assignStudent",
      "outputs": [],
      "stateMutability": "nonpayable",
      "type": "function"
    },
    {
      "inputs": [
        {
          "internalType": "uint256",
          "name": "id",
          "type": "uint256"
        }
      ],
      "name": "claimRefund",
      "outputs": [],
      "stateMutability": "nonpayable",
      "type": "function"
    },
    {
      "inputs": [
        {
          "internalType": "address payable",
          "name": "_student",
          "type": "address"
        },
        {
          "internalType": "uint256",
          "name": "_deadline",
          "type": "uint256"
        },
        {
          "internalType": "string",
          "name": "_title",
          "type": "string"
        },
        {
          "internalType": "string",
          "name": "_description",
          "type": "string"
        }
      ],
      "name": "createProject",
      "outputs": [
        {
          "internalType": "uint256",
          "name": "",
          "type": "uint256"
        }
      ],
      "stateMutability": "payable",
      "type": "function"
    },
    {
      "inputs": [
        {
          "internalType": "uint256",
          "name": "id",
          "type": "uint256"
        }
      ],
      "name": "deliverWork",
      "outputs": [],
      "stateMutability": "nonpayable",
      "type": "function"
    },
    {
      "inputs": [
        {
          "internalType": "uint256",
          "name": "id",
          "type": "uint256"
        }
      ],
      "name": "getProject",
      "outputs": [
        {
          "components": [
            {
              "internalType": "address payable",
              "name": "company",
              "type": "address"
            },
            {
              "internalType": "address payable",
              "name": "student",
              "type": "address"
            },
            {
              "internalType": "uint256",
              "name": "amount",
              "type": "uint256"
            },
            {
              "internalType": "uint256",
              "name": "deadline",
              "type": "uint256"
            },
            {
              "internalType": "enum EscrowProject.Status",
              "name": "status",
              "type": "uint8"
            },
            {
              "internalType": "string",
              "name": "title",
              "type": "string"
            },
            {
              "internalType": "string",
              "name": "description",
              "type": "string"
            }
          ],
          "internalType": "struct EscrowProject.Project",
          "name": "",
          "type": "tuple"
        }
      ],
      "stateMutability": "view",
      "type": "function"
    },
    {
      "inputs": [],
      "name": "platformFee",
      "outputs": [
        {
          "internalType": "uint256",
          "name": "",
          "type": "uint256"
        }
      ],
      "stateMutability": "view",
      "type": "function"
    },
    {
      "inputs": [],
      "name": "projectCount",
      "outputs": [
        {
          "internalType": "uint256",
          "name": "",
          "type": "uint256"
        }
      ],
      "stateMutability": "view",
      "type": "function"
    },
    {
      "inputs": [
        {
          "internalType": "uint256",
          "name": "",
          "type": "uint256"
        }
      ],
      "name": "projects",
      "outputs": [
        {
          "internalType": "address payable",
          "name": "company",
          "type": "address"
        },
        {
          "internalType": "address payable",
          "name": "student",
          "type": "address"
        },
        {
          "internalType": "uint256",
          "name": "amount",
          "type": "uint256"
        },
        {
          "internalType": "uint256",
          "name": "deadline",
          "type": "uint256"
        },
        {
          "internalType": "enum EscrowProject.Status",
          "name": "status",
          "type": "uint8"
        },
        {
          "internalType": "string",
          "name": "title",
          "type": "string"
        },
        {
          "internalType": "string",
          "name": "description",
          "type": "string"
        }
      ],
      "stateMutability": "view",
      "type": "function"
    },
    {
      "inputs": [
        {
          "internalType": "uint256",
          "name": "id",
          "type": "uint256"
        }
      ],
      "name": "raiseDispute",
      "outputs": [],
      "stateMutability": "nonpayable",
      "type": "function"
    },
    {
      "inputs": [
        {
          "internalType": "uint256",
          "name": "id",
          "type": "uint256"
        },
        {
          "internalType": "bool",
          "name": "favorStudent",
          "type": "bool"
        }
      ],
      "name": "resolveDispute",
      "outputs": [],
      "stateMutability": "nonpayable",
      "type": "function"
    }
  ],
  "bytecode": "0x608060405234801562000010575f80fd5b50604051620027f7380380620027f78339818101604052810190620000369190620000bf565b335f806101000a81548173ffffffffffffffffffffffffffffffffffffffff021916908373ffffffffffffffffffffffffffffffffffffffff1602179055508060028190555050620000ef565b5f80fd5b5f819050919050565b6200009b8162000087565b8114620000a6575f80fd5b50565b5f81519050620000b98162000090565b92915050565b5f60208284031215620000d757620000d662000083565b5b5f620000e684828501620000a9565b91505092915050565b6126fa80620000fd5f395ff3fe6080604052600436106100a6575f3560e01c8063a5c1674e11610063578063a5c1674e146101c0578063ba01f645146101e8578063cfb026bc14610210578063dcb0561114610238578063f0f3f2c814610260578063fe25e00a1461029c576100a6565b8063107046bd146100aa57806326232a2e146100ec57806334b25ee21461011657806336fbad261461013e5780635b7baf641461016857806371fc7fce14610190575b5f80fd5b3480156100b5575f80fd5b506100d060048036038101906100cb9190611858565b6102c6565b6040516100e397969594939291906119ce565b60405180910390f35b3480156100f7575f80fd5b5061010061045a565b60405161010d9190611a49565b60405180910390f35b348015610121575f80fd5b5061013c60048036038101906101379190611a97565b610460565b005b348015610149575f80fd5b506101526106d6565b60405161015f9190611a49565b60405180910390f35b348015610173575f80fd5b5061018e60048036038101906101899190611858565b6106dc565b005b6101aa60048036038101906101a59190611b60565b61092a565b6040516101b79190611a49565b60405180910390f35b3480156101cb575f80fd5b506101e660048036038101906101e19190611858565b610cbf565b005b3480156101f3575f80fd5b5061020e60048036038101906102099190611c03565b610eda565b005b34801561021b575f80fd5b5061023660048036038101906102319190611858565b6110d0565b005b348015610243575f80fd5b5061025e60048036038101906102599190611858565b61126a565b005b34801561026b575f80fd5b5061028660048036038101906102819190611858565b611542565b6040516102939190611d56565b60405180910390f35b3480156102a7575f80fd5b506102b0611784565b6040516102bd9190611d96565b60405180910390f35b6003602052805f5260405f205f91509050805f015f9054906101000a900473ffffffffffffffffffffffffffffffffffffffff1690806001015f9054906101000a900473ffffffffffffffffffffffffffffffffffffffff1690806002015490806003015490806004015f9054906101000a900460ff169080600501805461034d90611ddc565b80601f016020809104026020016040519081016040528092919081815260200182805461037990611ddc565b80156103c45780601f1061039b576101008083540402835291602001916103c4565b820191905f5260205f20905b8154815290600101906020018083116103a757829003601f168201915b5050505050908060060180546103d990611ddc565b80601f016020809104026020016040519081016040528092919081815260200182805461040590611ddc565b80156104505780601f1061042757610100808354040283529160200191610450565b820191905f5260205f20905b81548152906001019060200180831161043357829003601f168201915b5050505050905087565b60025481565b5f8054906101000a900473ffffffffffffffffffffffffffffffffffffffff1673ffffffffffffffffffffffffffffffffffffffff163373ffffffffffffffffffffffffffffffffffffffff16146104ed576040517f08c379a00000000000000000000000000000000000000000000000000000000081526004016104e490611e56565b60405180910390fd5b816004806005811115610503576105026118d1565b5b60035f8481526020019081526020015f206004015f9054906101000a900460ff166005811115610536576105356118d1565b5b14610576576040517f08c379a000000000000000000000000000000000000000000000000000000000815260040161056d90611ebe565b60405180910390fd5b5f60035f8681526020019081526020015f2090506003816004015f6101000a81548160ff021916908360058111156105b1576105b06118d1565b5b0217905550831561062c57806001015f9054906101000a900473ffffffffffffffffffffffffffffffffffffffff1673ffffffffffffffffffffffffffffffffffffffff166108fc826002015490811502906040515f60405180830381858888f19350505050158015610626573d5f803e3d5ffd5b50610697565b805f015f9054906101000a900473ffffffffffffffffffffffffffffffffffffffff1673ffffffffffffffffffffffffffffffffffffffff166108fc826002015490811502906040515f60405180830381858888f19350505050158015610695573d5f803e3d5ffd5b505b847f5a87909bff68caaaaf0b3fd9c74eeccc928832f879315e5c6fb7a73612f26c0c856040516106c79190611eeb565b60405180910390a25050505050565b60015481565b8060035f8281526020019081526020015f205f015f9054906101000a900473ffffffffffffffffffffffffffffffffffffffff1673ffffffffffffffffffffffffffffffffffffffff163373ffffffffffffffffffffffffffffffffffffffff161461077d576040517f08c379a000000000000000000000000000000000000000000000000000000000815260040161077490611f4e565b60405180910390fd5b816001806005811115610793576107926118d1565b5b60035f8481526020019081526020015f206004015f9054906101000a900460ff1660058111156107c6576107c56118d1565b5b14610806576040517f08c379a00000000000000000000000000000000000000000000000000000000081526004016107fd90611ebe565b60405180910390fd5b5f60035f8681526020019081526020015f20905080600301544211610860576040517f08c379a000000000000000000000000000000000000000000000000000000000815260040161085790611fb6565b60405180910390fd5b6005816004015f6101000a81548160ff02191690836005811115610887576108866118d1565b5b0217905550805f015f9054906101000a900473ffffffffffffffffffffffffffffffffffffffff1673ffffffffffffffffffffffffffffffffffffffff166108fc826002015490811502906040515f60405180830381858888f193505050501580156108f5573d5f803e3d5ffd5b50847f4ab797196040bd26631612245413cbb4c52e93eb63b5b0ae0baa7d504d7ed16560405160405180910390a25050505050565b5f80341161096d576040517f08c379a00000000000000000000000000000000000000000000000000000000081526004016109649061201e565b60405180910390fd5b4286116109af576040517f08c379a00000000000000000000000000000000000000000000000000000000081526004016109a690612086565b60405180910390fd5b5f60015f8154809291906109c2906120d1565b9190505590506040518060e001604052803373ffffffffffffffffffffffffffffffffffffffff1681526020018973ffffffffffffffffffffffffffffffffffffffff1681526020013481526020018881526020015f73ffffffffffffffffffffffffffffffffffffffff168a73ffffffffffffffffffffffffffffffffffffffff1603610a50575f610a53565b60015b6005811115610a6557610a646118d1565b5b815260200187878080601f0160208091040260200160405190810160405280939291908181526020018383808284375f81840152601f19601f82011690508083019250505050505050815260200185858080601f0160208091040260200160405190810160405280939291908181526020018383808284375f81840152601f19601f8201169050808301925050505050505081525060035f8381526020019081526020015f205f820151815f015f6101000a81548173ffffffffffffffffffffffffffffffffffffffff021916908373ffffffffffffffffffffffffffffffffffffffff1602179055506020820151816001015f6101000a81548173ffffffffffffffffffffffffffffffffffffffff021916908373ffffffffffffffffffffffffffffffffffffffff16021790555060408201518160020155606082015181600301556080820151816004015f6101000a81548160ff02191690836005811115610bd357610bd26118d1565b5b021790555060a0820151816005019081610bed91906122e2565b5060c0820151816006019081610c0391906122e2565b50905050807fb9063c72c82ab2995bd11103743bc1617470aab7e4eabe0516116f950cf4378033348989604051610c3d94939291906123eb565b60405180910390a25f73ffffffffffffffffffffffffffffffffffffffff168873ffffffffffffffffffffffffffffffffffffffff1614610cb157807f0d731a1fa74e60768b11cc6ce42d1e66d34453a6dca05c48990e85b2a0b296fe89604051610ca8919061247b565b60405180910390a25b809150509695505050505050565b5f60035f8381526020019081526020015f209050805f015f9054906101000a900473ffffffffffffffffffffffffffffffffffffffff1673ffffffffffffffffffffffffffffffffffffffff163373ffffffffffffffffffffffffffffffffffffffff161480610d7d5750806001015f9054906101000a900473ffffffffffffffffffffffffffffffffffffffff1673ffffffffffffffffffffffffffffffffffffffff163373ffffffffffffffffffffffffffffffffffffffff16145b610dbc576040517f08c379a0000000000000000000000000000000000000000000000000000000008152600401610db3906124de565b60405180910390fd5b60016005811115610dd057610dcf6118d1565b5b816004015f9054906101000a900460ff166005811115610df357610df26118d1565b5b1480610e33575060026005811115610e0e57610e0d6118d1565b5b816004015f9054906101000a900460ff166005811115610e3157610e306118d1565b5b145b610e72576040517f08c379a0000000000000000000000000000000000000000000000000000000008152600401610e6990612546565b60405180910390fd5b6004816004015f6101000a81548160ff02191690836005811115610e9957610e986118d1565b5b0217905550817f84a477df8a28a4276ca6dee4458a06c3015f30c477d9c949ede4e13ff8a552b433604051610ece9190611d96565b60405180910390a25050565b8160035f8281526020019081526020015f205f015f9054906101000a900473ffffffffffffffffffffffffffffffffffffffff1673ffffffffffffffffffffffffffffffffffffffff163373ffffffffffffffffffffffffffffffffffffffff1614610f7b576040517f08c379a0000000000000000000000000000000000000000000000000000000008152600401610f7290611f4e565b60405180910390fd5b825f806005811115610f9057610f8f6118d1565b5b60035f8481526020019081526020015f206004015f9054906101000a900460ff166005811115610fc357610fc26118d1565b5b14611003576040517f08c379a0000000000000000000000000000000000000000000000000000000008152600401610ffa90611ebe565b60405180910390fd5b8360035f8781526020019081526020015f206001015f6101000a81548173ffffffffffffffffffffffffffffffffffffffff021916908373ffffffffffffffffffffffffffffffffffffffff160217905550600160035f8781526020019081526020015f206004015f6101000a81548160ff0219169083600581111561108c5761108b6118d1565b5b0217905550847f0d731a1fa74e60768b11cc6ce42d1e66d34453a6dca05c48990e85b2a0b296fe856040516110c1919061247b565b60405180910390a25050505050565b8060035f8281526020019081526020015f206001015f9054906101000a900473ffffffffffffffffffffffffffffffffffffffff1673ffffffffffffffffffffffffffffffffffffffff163373ffffffffffffffffffffffffffffffffffffffff1614611172576040517f08c379a0000000000000000000000000000000000000000000000000000000008152600401611169906125ae565b60405180910390fd5b816001806005811115611188576111876118d1565b5b60035f8481526020019081526020015f206004015f9054906101000a900460ff1660058111156111bb576111ba6118d1565b5b146111fb576040517f08c379a00000000000000000000000000000000000000000000000000000000081526004016111f290611ebe565b60405180910390fd5b600260035f8681526020019081526020015f206004015f6101000a81548160ff02191690836005811115611232576112316118d1565b5b0217905550837ff423adf455a8ee19a6be88467fc08a0c700ce769c41803401efa3a6a8c81417d60405160405180910390a250505050565b8060035f8281526020019081526020015f205f015f9054906101000a900473ffffffffffffffffffffffffffffffffffffffff1673ffffffffffffffffffffffffffffffffffffffff163373ffffffffffffffffffffffffffffffffffffffff161461130b576040517f08c379a000000000000000000000000000000000000000000000000000000000815260040161130290611f4e565b60405180910390fd5b816002806005811115611321576113206118d1565b5b60035f8481526020019081526020015f206004015f9054906101000a900460ff166005811115611354576113536118d1565b5b14611394576040517f08c379a000000000000000000000000000000000000000000000000000000000815260040161138b90611ebe565b60405180910390fd5b5f60035f8681526020019081526020015f2090506003816004015f6101000a81548160ff021916908360058111156113cf576113ce6118d1565b5b02179055505f61271060025483600201546113ea91906125cc565b6113f4919061263a565b90505f818360020154611407919061266a565b9050826001015f9054906101000a900473ffffffffffffffffffffffffffffffffffffffff1673ffffffffffffffffffffffffffffffffffffffff166108fc8290811502906040515f60405180830381858888f1935050505015801561146f573d5f803e3d5ffd5b505f8211156114dc575f8054906101000a900473ffffffffffffffffffffffffffffffffffffffff1673ffffffffffffffffffffffffffffffffffffffff166108fc8390811502906040515f60405180830381858888f193505050501580156114da573d5f803e3d5ffd5b505b867f6e3c6096795c8298a218b2cfb8bde42726ff7c9a3d27b4d3ba41ab7f74feb5fb846001015f9054906101000a900473ffffffffffffffffffffffffffffffffffffffff168360405161153192919061269d565b60405180910390a250505050505050565b61154a6117a7565b60035f8381526020019081526020015f206040518060e00160405290815f82015f9054906101000a900473ffffffffffffffffffffffffffffffffffffffff1673ffffffffffffffffffffffffffffffffffffffff1673ffffffffffffffffffffffffffffffffffffffff168152602001600182015f9054906101000a900473ffffffffffffffffffffffffffffffffffffffff1673ffffffffffffffffffffffffffffffffffffffff1673ffffffffffffffffffffffffffffffffffffffff1681526020016002820154815260200160038201548152602001600482015f9054906101000a900460ff166005811115611647576116466118d1565b5b6005811115611659576116586118d1565b5b815260200160058201805461166d90611ddc565b80601f016020809104026020016040519081016040528092919081815260200182805461169990611ddc565b80156116e45780601f106116bb576101008083540402835291602001916116e4565b820191905f5260205f20905b8154815290600101906020018083116116c757829003601f168201915b505050505081526020016006820180546116fd90611ddc565b80601f016020809104026020016040519081016040528092919081815260200182805461172990611ddc565b80156117745780601f1061174b57610100808354040283529160200191611774565b820191905f5260205f20905b81548152906001019060200180831161175757829003601f168201915b5050505050815250509050919050565b5f8054906101000a900473ffffffffffffffffffffffffffffffffffffffff1681565b6040518060e001604052805f73ffffffffffffffffffffffffffffffffffffffff1681526020015f73ffffffffffffffffffffffffffffffffffffffff1681526020015f81526020015f81526020015f6005811115611809576118086118d1565b5b815260200160608152602001606081525090565b5f80fd5b5f80fd5b5f819050919050565b61183781611825565b8114611841575f80fd5b50565b5f813590506118528161182e565b92915050565b5f6020828403121561186d5761186c61181d565b5b5f61187a84828501611844565b91505092915050565b5f73ffffffffffffffffffffffffffffffffffffffff82169050919050565b5f6118ac82611883565b9050919050565b6118bc816118a2565b82525050565b6118cb81611825565b82525050565b7f4e487b71000000000000000000000000000000000000000000000000000000005f52602160045260245ffd5b6006811061190f5761190e6118d1565b5b50565b5f81905061191f826118fe565b919050565b5f61192e82611912565b9050919050565b61193e81611924565b82525050565b5f81519050919050565b5f82825260208201905092915050565b5f5b8381101561197b578082015181840152602081019050611960565b5f8484015250505050565b5f601f19601f8301169050919050565b5f6119a082611944565b6119aa818561194e565b93506119ba81856020860161195e565b6119c381611986565b840191505092915050565b5f60e0820190506119e15f83018a6118b3565b6119ee60208301896118b3565b6119fb60408301886118c2565b611a0860608301876118c2565b611a156080830186611935565b81810360a0830152611a278185611996565b905081810360c0830152611a3b8184611996565b905098975050505050505050565b5f602082019050611a5c5f8301846118c2565b92915050565b5f8115159050919050565b611a7681611a62565b8114611a80575f80fd5b50565b5f81359050611a9181611a6d565b92915050565b5f8060408385031215611aad57611aac61181d565b5b5f611aba85828601611844565b9250506020611acb85828601611a83565b9150509250929050565b611ade816118a2565b8114611ae8575f80fd5b50565b5f81359050611af981611ad5565b92915050565b5f80fd5b5f80fd5b5f80fd5b5f8083601f840112611b2057611b1f611aff565b5b8235905067ffffffffffffffff811115611b3d57611b3c611b03565b5b602083019150836001820283011115611b5957611b58611b07565b5b9250929050565b5f805f805f8060808789031215611b7a57611b7961181d565b5b5f611b8789828a01611aeb565b9650506020611b9889828a01611844565b955050604087013567ffffffffffffffff811115611bb957611bb8611821565b5b611bc589828a01611b0b565b9450945050606087013567ffffffffffffffff811115611be857611be7611821565b5b611bf489828a01611b0b565b92509250509295509295509295565b5f8060408385031215611c1957611c1861181d565b5b5f611c2685828601611844565b9250506020611c3785828601611aeb565b9150509250929050565b611c4a816118a2565b82525050565b611c5981611825565b82525050565b611c6881611924565b82525050565b5f82825260208201905092915050565b5f611c8882611944565b611c928185611c6e565b9350611ca281856020860161195e565b611cab81611986565b840191505092915050565b5f60e083015f830151611ccb5f860182611c41565b506020830151611cde6020860182611c41565b506040830151611cf16040860182611c50565b506060830151611d046060860182611c50565b506080830151611d176080860182611c5f565b5060a083015184820360a0860152611d2f8282611c7e565b91505060c083015184820360c0860152611d498282611c7e565b9150508091505092915050565b5f6020820190508181035f830152611d6e8184611cb6565b905092915050565b5f611d8082611883565b9050919050565b611d9081611d76565b82525050565b5f602082019050611da95f830184611d87565b92915050565b7f4e487b71000000000000000000000000000000000000000000000000000000005f52602260045260245ffd5b5f6002820490506001821680611df357607f821691505b602082108103611e0657611e05611daf565b5b50919050565b7f536f6c6f20656c206172626974726f00000000000000000000000000000000005f82015250565b5f611e40600f8361194e565b9150611e4b82611e0c565b602082019050919050565b5f6020820190508181035f830152611e6d81611e34565b9050919050565b7f45737461646f20696e636f72726563746f0000000000000000000000000000005f82015250565b5f611ea860118361194e565b9150611eb382611e74565b602082019050919050565b5f6020820190508181035f830152611ed581611e9c565b9050919050565b611ee581611a62565b82525050565b5f602082019050611efe5f830184611edc565b92915050565b7f536f6c6f206c6120656d707265736100000000000000000000000000000000005f82015250565b5f611f38600f8361194e565b9150611f4382611f04565b602082019050919050565b5f6020820190508181035f830152611f6581611f2c565b9050919050565b7f446561646c696e65206e6f2076656e6369646f000000000000000000000000005f82015250565b5f611fa060138361194e565b9150611fab82611f6c565b602082019050919050565b5f6020820190508181035f830152611fcd81611f94565b9050919050565b7f4465626520666f6e6465617220656c2070726f796563746f00000000000000005f82015250565b5f61200860188361194e565b915061201382611fd4565b602082019050919050565b5f6020820190508181035f83015261203581611ffc565b9050919050565b7f446561646c696e652064656265207365722066757475726f00000000000000005f82015250565b5f61207060188361194e565b915061207b8261203c565b602082019050919050565b5f6020820190508181035f83015261209d81612064565b9050919050565b7f4e487b71000000000000000000000000000000000000000000000000000000005f52601160045260245ffd5b5f6120db82611825565b91507fffffffffffffffffffffffffffffffffffffffffffffffffffffffffffffffff820361210d5761210c6120a4565b5b600182019050919050565b7f4e487b71000000000000000000000000000000000000000000000000000000005f52604160045260245ffd5b5f819050815f5260205f209050919050565b5f6020601f8301049050919050565b5f82821b905092915050565b5f600883026121a17fffffffffffffffffffffffffffffffffffffffffffffffffffffffffffffffff82612166565b6121ab8683612166565b95508019841693508086168417925050509392505050565b5f819050919050565b5f6121e66121e16121dc84611825565b6121c3565b611825565b9050919050565b5f819050919050565b6121ff836121cc565b61221361220b826121ed565b848454612172565b825550505050565b5f90565b61222761221b565b6122328184846121f6565b505050565b5b818110156122555761224a5f8261221f565b600181019050612238565b5050565b601f82111561229a5761226b81612145565b61227484612157565b81016020851015612283578190505b61229761228f85612157565b830182612237565b50505b505050565b5f82821c905092915050565b5f6122ba5f198460080261229f565b1980831691505092915050565b5f6122d283836122ab565b9150826002028217905092915050565b6122eb82611944565b67ffffffffffffffff81111561230457612303612118565b5b61230e8254611ddc565b612319828285612259565b5f60209050601f83116001811461234a575f8415612338578287015190505b61234285826122c7565b8655506123a9565b601f19841661235886612145565b5f5b8281101561237f5784890151825560018201915060208501945060208101905061235a565b8683101561239c5784890151612398601f8916826122ab565b8355505b6001600288020188555050505b505050505050565b828183375f83830152505050565b5f6123ca838561194e565b93506123d78385846123b1565b6123e083611986565b840190509392505050565b5f6060820190506123fe5f830187611d87565b61240b60208301866118c2565b818103604083015261241e8184866123bf565b905095945050505050565b5f61244361243e61243984611883565b6121c3565b611883565b9050919050565b5f61245482612429565b9050919050565b5f6124658261244a565b9050919050565b6124758161245b565b82525050565b5f60208201905061248e5f83018461246c565b92915050565b7f536f6c6f207061727469636970616e74657300000000000000000000000000005f82015250565b5f6124c860128361194e565b91506124d382612494565b602082019050919050565b5f6020820190508181035f8301526124f5816124bc565b9050919050565b7f45737461646f206e6f2064697370757461626c650000000000000000000000005f82015250565b5f61253060148361194e565b915061253b826124fc565b602082019050919050565b5f6020820190508181035f83015261255d81612524565b9050919050565b7f536f6c6f20656c20657374756469616e746500000000000000000000000000005f82015250565b5f61259860128361194e565b91506125a382612564565b602082019050919050565b5f6020820190508181035f8301526125c58161258c565b9050919050565b5f6125d682611825565b91506125e183611825565b92508282026125ef81611825565b91508282048414831517612606576126056120a4565b5b5092915050565b7f4e487b71000000000000000000000000000000000000000000000000000000005f52601260045260245ffd5b5f61264482611825565b915061264f83611825565b92508261265f5761265e61260d565b5b828204905092915050565b5f61267482611825565b915061267f83611825565b9250828203905081811115612697576126966120a4565b5b92915050565b5f6040820190506126b05f83018561246c565b6126bd60208301846118c2565b939250505056fea2646970667358221220c1599d070671c6cf304413bdeb1170fdb2a7584435cf4414d7bd059a992e3f4064736f6c63430008140033",
  "linkReferences": {},
  "deployedLinkReferences": {},
  "immutableReferences": {},
  "inputSourceName": "project/contracts/EscrowProject.sol",
  "buildInfoId": "solc-0_8_20-11169b4c0a4e56deff224e329553ca069e245e41"
}